{
  "contractName": "Basic",
  "abi": [
    {
      "constant": true,
      "inputs": [
        {
          "name": "",
          "type": "address"
        }
      ],
      "name": "userInfo",
      "outputs": [
        {
          "name": "balance",
          "type": "uint256"
        },
        {
          "name": "redID",
          "type": "uint256"
        },
        {
          "name": "reds",
          "type": "uint256"
        }
      ],
      "payable": false,
      "stateMutability": "view",
      "type": "function"
    },
    {
      "constant": true,
      "inputs": [],
      "name": "owner",
      "outputs": [
        {
          "name": "",
          "type": "address"
        }
      ],
      "payable": false,
      "stateMutability": "view",
      "type": "function"
    },
    {
      "constant": true,
      "inputs": [],
      "name": "com",
      "outputs": [
        {
          "name": "",
          "type": "address"
        }
      ],
      "payable": false,
      "stateMutability": "view",
      "type": "function"
    },
    {
      "constant": true,
      "inputs": [],
      "name": "admin",
      "outputs": [
        {
          "name": "",
          "type": "address"
        }
      ],
      "payable": false,
      "stateMutability": "view",
      "type": "function"
    },
    {
      "inputs": [],
      "payable": false,
      "stateMutability": "nonpayable",
      "type": "constructor"
    },
    {
      "anonymous": false,
      "inputs": [
        {
          "indexed": false,
          "name": "user",
          "type": "address"
        },
        {
          "indexed": false,
          "name": "value",
          "type": "uint256"
        }
      ],
      "name": "onDeposit",
      "type": "event"
    },
    {
      "anonymous": false,
      "inputs": [
        {
          "indexed": false,
          "name": "user",
          "type": "address"
        },
        {
          "indexed": false,
          "name": "value",
          "type": "uint256"
        }
      ],
      "name": "onWithdraw",
      "type": "event"
    },
    {
      "anonymous": false,
      "inputs": [
        {
          "indexed": false,
          "name": "userAddress",
          "type": "address"
        },
        {
          "indexed": false,
          "name": "lucky",
          "type": "uint256"
        },
        {
          "indexed": false,
          "name": "redID",
          "type": "uint256"
        }
      ],
      "name": "onUpdateUserPlayingStatus",
      "type": "event"
    },
    {
      "anonymous": false,
      "inputs": [
        {
          "indexed": false,
          "name": "userAddress",
          "type": "address"
        },
        {
          "indexed": false,
          "name": "lucky",
          "type": "uint256"
        },
        {
          "indexed": false,
          "name": "redID",
          "type": "uint256"
        }
      ],
      "name": "onUpdateUserPlayingStatusMulti",
      "type": "event"
    },
    {
      "anonymous": false,
      "inputs": [
        {
          "indexed": false,
          "name": "player2",
          "type": "address"
        },
        {
          "indexed": false,
          "name": "value2",
          "type": "uint256"
        },
        {
          "indexed": false,
          "name": "player3",
          "type": "address"
        },
        {
          "indexed": false,
          "name": "value3",
          "type": "uint256"
        },
        {
          "indexed": false,
          "name": "player4",
          "type": "address"
        },
        {
          "indexed": false,
          "name": "value4",
          "type": "uint256"
        },
        {
          "indexed": false,
          "name": "player5",
          "type": "address"
        },
        {
          "indexed": false,
          "name": "value5",
          "type": "uint256"
        },
        {
          "indexed": false,
          "name": "redID",
          "type": "uint256"
        }
      ],
      "name": "onUploadRedResult",
      "type": "event"
    },
    {
      "anonymous": false,
      "inputs": [
        {
          "indexed": false,
          "name": "luckyBoy",
          "type": "address"
        },
        {
          "indexed": false,
          "name": "subValue",
          "type": "uint256"
        },
        {
          "indexed": false,
          "name": "dividends",
          "type": "uint256"
        },
        {
          "indexed": false,
          "name": "lucky",
          "type": "uint256"
        },
        {
          "indexed": false,
          "name": "aff",
          "type": "address"
        },
        {
          "indexed": false,
          "name": "affEarn",
          "type": "uint256"
        },
        {
          "indexed": false,
          "name": "comEarn",
          "type": "uint256"
        },
        {
          "indexed": false,
          "name": "redID",
          "type": "uint256"
        }
      ],
      "name": "onUploadPoolResult",
      "type": "event"
    },
    {
      "anonymous": false,
      "inputs": [
        {
          "indexed": false,
          "name": "userAddress",
          "type": "address"
        },
        {
          "indexed": false,
          "name": "value",
          "type": "uint256"
        },
        {
          "indexed": false,
          "name": "balance",
          "type": "uint256"
        }
      ],
      "name": "onUploadShareBonus",
      "type": "event"
    },
    {
      "anonymous": false,
      "inputs": [
        {
          "indexed": false,
          "name": "dividendsPool",
          "type": "uint256"
        }
      ],
      "name": "onGetAndClearDividendsPool",
      "type": "event"
    },
    {
      "anonymous": false,
      "inputs": [
        {
          "indexed": false,
          "name": "user1",
          "type": "address"
        },
        {
          "indexed": false,
          "name": "value1",
          "type": "uint256"
        },
        {
          "indexed": false,
          "name": "user2",
          "type": "address"
        },
        {
          "indexed": false,
          "name": "value2",
          "type": "uint256"
        },
        {
          "indexed": false,
          "name": "user3",
          "type": "address"
        },
        {
          "indexed": false,
          "name": "value3",
          "type": "uint256"
        },
        {
          "indexed": false,
          "name": "user4",
          "type": "address"
        },
        {
          "indexed": false,
          "name": "value4",
          "type": "uint256"
        },
        {
          "indexed": false,
          "name": "user5",
          "type": "address"
        },
        {
          "indexed": false,
          "name": "value5",
          "type": "uint256"
        }
      ],
      "name": "onUpdateFiveUserBalance",
      "type": "event"
    },
    {
      "anonymous": false,
      "inputs": [
        {
          "indexed": false,
          "name": "user",
          "type": "address"
        },
        {
          "indexed": false,
          "name": "amount",
          "type": "uint256"
        }
      ],
      "name": "onSignIn",
      "type": "event"
    },
    {
      "constant": false,
      "inputs": [
        {
          "name": "adminAddress",
          "type": "address"
        }
      ],
      "name": "setAdmin",
      "outputs": [],
      "payable": false,
      "stateMutability": "nonpayable",
      "type": "function"
    },
    {
      "constant": false,
      "inputs": [
        {
          "name": "comAddress",
          "type": "address"
        }
      ],
      "name": "setCom",
      "outputs": [],
      "payable": false,
      "stateMutability": "nonpayable",
      "type": "function"
    },
    {
      "constant": false,
      "inputs": [],
      "name": "deposit",
      "outputs": [],
      "payable": true,
      "stateMutability": "payable",
      "type": "function"
    },
    {
      "constant": false,
      "inputs": [],
      "name": "withdraw",
      "outputs": [],
      "payable": false,
      "stateMutability": "nonpayable",
      "type": "function"
    },
    {
      "constant": false,
      "inputs": [
        {
          "name": "userAddress",
          "type": "address"
        },
        {
          "name": "lucky",
          "type": "uint256"
        },
        {
          "name": "redID",
          "type": "uint256"
        }
      ],
      "name": "updateUserPlayingStatus",
      "outputs": [],
      "payable": false,
      "stateMutability": "nonpayable",
      "type": "function"
    },
    {
      "constant": false,
      "inputs": [
        {
          "name": "player2",
          "type": "address"
        },
        {
          "name": "value2",
          "type": "uint256"
        },
        {
          "name": "player3",
          "type": "address"
        },
        {
          "name": "value3",
          "type": "uint256"
        },
        {
          "name": "player4",
          "type": "address"
        },
        {
          "name": "value4",
          "type": "uint256"
        },
        {
          "name": "player5",
          "type": "address"
        },
        {
          "name": "value5",
          "type": "uint256"
        }
      ],
      "name": "uploadRedResult",
      "outputs": [],
      "payable": false,
      "stateMutability": "nonpayable",
      "type": "function"
    },
    {
      "constant": false,
      "inputs": [
        {
          "name": "luckyBoy",
          "type": "address"
        },
        {
          "name": "subValue",
          "type": "uint256"
        },
        {
          "name": "dividends",
          "type": "uint256"
        },
        {
          "name": "lucky",
          "type": "uint256"
        },
        {
          "name": "aff",
          "type": "address"
        },
        {
          "name": "affEarn",
          "type": "uint256"
        },
        {
          "name": "comEarn",
          "type": "uint256"
        }
      ],
      "name": "uploadPoolResult",
      "outputs": [],
      "payable": false,
      "stateMutability": "nonpayable",
      "type": "function"
    },
    {
      "constant": false,
      "inputs": [],
      "name": "getAndClearDividendsPool",
      "outputs": [
        {
          "name": "",
          "type": "uint256"
        }
      ],
      "payable": false,
      "stateMutability": "nonpayable",
      "type": "function"
    },
    {
      "constant": false,
      "inputs": [
        {
          "name": "userAddress",
          "type": "address"
        },
        {
          "name": "value",
          "type": "uint256"
        }
      ],
      "name": "uploadShareBonus",
      "outputs": [],
      "payable": false,
      "stateMutability": "nonpayable",
      "type": "function"
    },
    {
      "constant": false,
      "inputs": [
        {
          "name": "user1",
          "type": "address"
        },
        {
          "name": "value1",
          "type": "uint256"
        },
        {
          "name": "user2",
          "type": "address"
        },
        {
          "name": "value2",
          "type": "uint256"
        },
        {
          "name": "user3",
          "type": "address"
        },
        {
          "name": "value3",
          "type": "uint256"
        },
        {
          "name": "user4",
          "type": "address"
        },
        {
          "name": "value4",
          "type": "uint256"
        },
        {
          "name": "user5",
          "type": "address"
        },
        {
          "name": "value5",
          "type": "uint256"
        }
      ],
      "name": "updateFiveUserBalance",
      "outputs": [],
      "payable": false,
      "stateMutability": "nonpayable",
      "type": "function"
    },
    {
      "constant": true,
      "inputs": [
        {
          "name": "userAddress",
          "type": "address"
        }
      ],
      "name": "getUserStatus",
      "outputs": [
        {
          "name": "balance",
          "type": "uint256"
        },
        {
          "name": "redID",
          "type": "uint256"
        },
        {
          "name": "reds",
          "type": "uint256"
        }
      ],
      "payable": false,
      "stateMutability": "view",
      "type": "function"
    },
    {
      "constant": true,
      "inputs": [],
      "name": "getGlobalInfo",
      "outputs": [
        {
          "name": "",
          "type": "uint256"
        },
        {
          "name": "",
          "type": "uint256"
        },
        {
          "name": "",
          "type": "uint256"
        },
        {
          "name": "",
          "type": "bool"
        },
        {
          "name": "",
          "type": "bool"
        },
        {
          "name": "",
          "type": "bool"
        }
      ],
      "payable": false,
      "stateMutability": "view",
      "type": "function"
    },
    {
      "constant": false,
      "inputs": [
        {
          "name": "deposit",
          "type": "bool"
        },
        {
          "name": "withdraw",
          "type": "bool"
        },
        {
          "name": "signIn",
          "type": "bool"
        }
      ],
      "name": "switchCharge",
      "outputs": [],
      "payable": false,
      "stateMutability": "nonpayable",
      "type": "function"
    },
    {
      "constant": false,
      "inputs": [],
      "name": "close",
      "outputs": [],
      "payable": false,
      "stateMutability": "nonpayable",
      "type": "function"
    },
    {
      "constant": false,
      "inputs": [
        {
          "name": "userAddress",
          "type": "address"
        },
        {
          "name": "lucky",
          "type": "uint256"
        },
        {
          "name": "redID",
          "type": "uint256"
        }
      ],
      "name": "updateUserPlayingStatusMulti",
      "outputs": [],
      "payable": false,
      "stateMutability": "nonpayable",
      "type": "function"
    },
    {
      "constant": false,
      "inputs": [],
      "name": "signIn",
      "outputs": [
        {
          "name": "",
          "type": "uint256"
        }
      ],
      "payable": false,
      "stateMutability": "nonpayable",
      "type": "function"
    }
  ],
  "bytecode": "0x608060405234801561001057600080fd5b50336000806101000a81548173ffffffffffffffffffffffffffffffffffffffff021916908373ffffffffffffffffffffffffffffffffffffffff16021790555033600160006101000a81548173ffffffffffffffffffffffffffffffffffffffff021916908373ffffffffffffffffffffffffffffffffffffffff16021790555033600260006101000a81548173ffffffffffffffffffffffffffffffffffffffff021916908373ffffffffffffffffffffffffffffffffffffffff1602179055506000600260146101000a81548160ff0219169083151502179055506000600260156101000a81548160ff0219169083151502179055506000600260166101000a81548160ff021916908315150217905550613c75806101336000396000f300608060405260043610610111576000357c0100000000000000000000000000000000000000000000000000000000900463ffffffff16806206453f146101165780631959a0021461020b5780633ccfd60b14610270578063403c93031461028757806343d726d61461031c57806358fd23b314610333578063704b6c021461037657806379f2efba146103b95780638da5cb5b1461040057806392ba9e9e146104575780639966f02c146105225780639c3c8e4f1461054d5780639e4cda431461059a578063afaaf91d146105c5578063cb0eb0a61461061c578063d0e30db014610673578063dab680dc1461067d578063e09966a8146106d7578063ea0d5dcd1461072e578063f851a44014610793575b600080fd5b34801561012257600080fd5b50610209600480360381019080803573ffffffffffffffffffffffffffffffffffffffff16906020019092919080359060200190929190803573ffffffffffffffffffffffffffffffffffffffff16906020019092919080359060200190929190803573ffffffffffffffffffffffffffffffffffffffff16906020019092919080359060200190929190803573ffffffffffffffffffffffffffffffffffffffff16906020019092919080359060200190929190803573ffffffffffffffffffffffffffffffffffffffff169060200190929190803590602001909291905050506107ea565b005b34801561021757600080fd5b5061024c600480360381019080803573ffffffffffffffffffffffffffffffffffffffff169060200190929190505050610d74565b60405180848152602001838152602001828152602001935050505060405180910390f35b34801561027c57600080fd5b50610285610d9e565b005b34801561029357600080fd5b5061031a600480360381019080803573ffffffffffffffffffffffffffffffffffffffff169060200190929190803590602001909291908035906020019092919080359060200190929190803573ffffffffffffffffffffffffffffffffffffffff16906020019092919080359060200190929190803590602001909291905050506111a7565b005b34801561032857600080fd5b50610331611711565b005b34801561033f57600080fd5b50610374600480360381019080803573ffffffffffffffffffffffffffffffffffffffff169060200190929190505050611845565b005b34801561038257600080fd5b506103b7600480360381019080803573ffffffffffffffffffffffffffffffffffffffff1690602001909291905050506119d1565b005b3480156103c557600080fd5b506103fe600480360381019080803515159060200190929190803515159060200190929190803515159060200190929190505050611b5d565b005b34801561040c57600080fd5b50610415611ccc565b604051808273ffffffffffffffffffffffffffffffffffffffff1673ffffffffffffffffffffffffffffffffffffffff16815260200191505060405180910390f35b34801561046357600080fd5b50610520600480360381019080803573ffffffffffffffffffffffffffffffffffffffff16906020019092919080359060200190929190803573ffffffffffffffffffffffffffffffffffffffff16906020019092919080359060200190929190803573ffffffffffffffffffffffffffffffffffffffff16906020019092919080359060200190929190803573ffffffffffffffffffffffffffffffffffffffff16906020019092919080359060200190929190505050611cf1565b005b34801561052e57600080fd5b5061053761274a565b6040518082815260200191505060405180910390f35b34801561055957600080fd5b50610598600480360381019080803573ffffffffffffffffffffffffffffffffffffffff169060200190929190803590602001909291905050506128b4565b005b3480156105a657600080fd5b506105af612b24565b6040518082815260200191505060405180910390f35b3480156105d157600080fd5b5061061a600480360381019080803573ffffffffffffffffffffffffffffffffffffffff1690602001909291908035906020019092919080359060200190929190505050612c34565b005b34801561062857600080fd5b50610671600480360381019080803573ffffffffffffffffffffffffffffffffffffffff1690602001909291908035906020019092919080359060200190929190505050613117565b005b61067b613540565b005b34801561068957600080fd5b506106926137da565b60405180878152602001868152602001858152602001841515151581526020018315151515815260200182151515158152602001965050505050505060405180910390f35b3480156106e357600080fd5b506106ec613845565b604051808273ffffffffffffffffffffffffffffffffffffffff1673ffffffffffffffffffffffffffffffffffffffff16815260200191505060405180910390f35b34801561073a57600080fd5b5061076f600480360381019080803573ffffffffffffffffffffffffffffffffffffffff16906020019092919050505061386b565b60405180848152602001838152602001828152602001935050505060405180910390f35b34801561079f57600080fd5b506107a8613946565b604051808273ffffffffffffffffffffffffffffffffffffffff1673ffffffffffffffffffffffffffffffffffffffff16815260200191505060405180910390f35b6000809054906101000a900473ffffffffffffffffffffffffffffffffffffffff1673ffffffffffffffffffffffffffffffffffffffff163373ffffffffffffffffffffffffffffffffffffffff1614806108925750600160009054906101000a900473ffffffffffffffffffffffffffffffffffffffff1673ffffffffffffffffffffffffffffffffffffffff163373ffffffffffffffffffffffffffffffffffffffff16145b1515610906576040517f08c379a00000000000000000000000000000000000000000000000000000000081526004018080602001828103825260108152602001807f4552524f525f4f4e4c595f41444d494e0000000000000000000000000000000081525060200191505060405180910390fd5b61095b89600360008d73ffffffffffffffffffffffffffffffffffffffff1673ffffffffffffffffffffffffffffffffffffffff1681526020019081526020016000206000015461396c90919063ffffffff16565b600360008c73ffffffffffffffffffffffffffffffffffffffff1673ffffffffffffffffffffffffffffffffffffffff168152602001908152602001600020600001819055506109f687600360008b73ffffffffffffffffffffffffffffffffffffffff1673ffffffffffffffffffffffffffffffffffffffff1681526020019081526020016000206000015461396c90919063ffffffff16565b600360008a73ffffffffffffffffffffffffffffffffffffffff1673ffffffffffffffffffffffffffffffffffffffff16815260200190815260200160002060000181905550610a9185600360008973ffffffffffffffffffffffffffffffffffffffff1673ffffffffffffffffffffffffffffffffffffffff1681526020019081526020016000206000015461396c90919063ffffffff16565b600360008873ffffffffffffffffffffffffffffffffffffffff1673ffffffffffffffffffffffffffffffffffffffff16815260200190815260200160002060000181905550610b2c83600360008773ffffffffffffffffffffffffffffffffffffffff1673ffffffffffffffffffffffffffffffffffffffff1681526020019081526020016000206000015461396c90919063ffffffff16565b600360008673ffffffffffffffffffffffffffffffffffffffff1673ffffffffffffffffffffffffffffffffffffffff16815260200190815260200160002060000181905550610bc781600360008573ffffffffffffffffffffffffffffffffffffffff1673ffffffffffffffffffffffffffffffffffffffff1681526020019081526020016000206000015461396c90919063ffffffff16565b600360008473ffffffffffffffffffffffffffffffffffffffff1673ffffffffffffffffffffffffffffffffffffffff168152602001908152602001600020600001819055507fbeb78b42816b946b46e781434e2e8057d8410c7d09af0c51d70597fc9ce561ff8a8a8a8a8a8a8a8a8a8a604051808b73ffffffffffffffffffffffffffffffffffffffff1673ffffffffffffffffffffffffffffffffffffffff1681526020018a81526020018973ffffffffffffffffffffffffffffffffffffffff1673ffffffffffffffffffffffffffffffffffffffff1681526020018881526020018773ffffffffffffffffffffffffffffffffffffffff1673ffffffffffffffffffffffffffffffffffffffff1681526020018681526020018573ffffffffffffffffffffffffffffffffffffffff1673ffffffffffffffffffffffffffffffffffffffff1681526020018481526020018373ffffffffffffffffffffffffffffffffffffffff1673ffffffffffffffffffffffffffffffffffffffff1681526020018281526020019a505050505050505050505060405180910390a150505050505050505050565b60036020528060005260406000206000915090508060000154908060010154908060020154905083565b6000806000339150813b9050600081141515610e22576040517f08c379a00000000000000000000000000000000000000000000000000000000081526004018080602001828103825260118152602001807f4552524f525f4f4e4c595f48554e4d414e00000000000000000000000000000081525060200191505060405180910390fd5b60011515600260159054906101000a900460ff161515141515610ead576040517f08c379a00000000000000000000000000000000000000000000000000000000081526004018080602001828103825260158152602001807f4552524f525f57495448445241575f42414e4e4544000000000000000000000081525060200191505060405180910390fd5b3392506000600360008573ffffffffffffffffffffffffffffffffffffffff1673ffffffffffffffffffffffffffffffffffffffff16815260200190815260200160002060000154111515610f6a576040517f08c379a000000000000000000000000000000000000000000000000000000000815260040180806020018281038252601c8152602001807f4552524f525f494e56414c49445f57495448445241575f56414c55450000000081525060200191505060405180910390fd5b6000600360008573ffffffffffffffffffffffffffffffffffffffff1673ffffffffffffffffffffffffffffffffffffffff16815260200190815260200160002060020154141515611024576040517f08c379a000000000000000000000000000000000000000000000000000000000815260040180806020018281038252600d8152602001807f4552524f525f494e5f47414d450000000000000000000000000000000000000081525060200191505060405180910390fd5b8273ffffffffffffffffffffffffffffffffffffffff166108fc600360008673ffffffffffffffffffffffffffffffffffffffff1673ffffffffffffffffffffffffffffffffffffffff168152602001908152602001600020600001549081150290604051600060405180830381858888f193505050501580156110ac573d6000803e3d6000fd5b507fccad973dcd043c7d680389db4378bd6b9775db7124092e9e0422c9e46d7985dc83600360008673ffffffffffffffffffffffffffffffffffffffff1673ffffffffffffffffffffffffffffffffffffffff16815260200190815260200160002060000154604051808373ffffffffffffffffffffffffffffffffffffffff1673ffffffffffffffffffffffffffffffffffffffff1681526020018281526020019250505060405180910390a16000600360008573ffffffffffffffffffffffffffffffffffffffff1673ffffffffffffffffffffffffffffffffffffffff16815260200190815260200160002060000181905550505050565b60008060009054906101000a900473ffffffffffffffffffffffffffffffffffffffff1673ffffffffffffffffffffffffffffffffffffffff163373ffffffffffffffffffffffffffffffffffffffff1614806112515750600160009054906101000a900473ffffffffffffffffffffffffffffffffffffffff1673ffffffffffffffffffffffffffffffffffffffff163373ffffffffffffffffffffffffffffffffffffffff16145b15156112c5576040517f08c379a00000000000000000000000000000000000000000000000000000000081526004018080602001828103825260108152602001807f4552524f525f4f4e4c595f41444d494e0000000000000000000000000000000081525060200191505060405180910390fd5b6000600360008a73ffffffffffffffffffffffffffffffffffffffff1673ffffffffffffffffffffffffffffffffffffffff1681526020019081526020016000206002015411151561137f576040517f08c379a00000000000000000000000000000000000000000000000000000000081526004018080602001828103825260118152602001807f4552524f525f4e4f545f494e5f47414d4500000000000000000000000000000081525060200191505060405180910390fd5b6113d487600360008b73ffffffffffffffffffffffffffffffffffffffff1673ffffffffffffffffffffffffffffffffffffffff1681526020019081526020016000206000015461398890919063ffffffff16565b600360008a73ffffffffffffffffffffffffffffffffffffffff1673ffffffffffffffffffffffffffffffffffffffff16815260200190815260200160002060000181905550600360008973ffffffffffffffffffffffffffffffffffffffff1673ffffffffffffffffffffffffffffffffffffffff1681526020019081526020016000206001015490506114b56001600360008b73ffffffffffffffffffffffffffffffffffffffff1673ffffffffffffffffffffffffffffffffffffffff1681526020019081526020016000206002015461398890919063ffffffff16565b600360008a73ffffffffffffffffffffffffffffffffffffffff1673ffffffffffffffffffffffffffffffffffffffff168152602001908152602001600020600201819055506115108660045461396c90919063ffffffff16565b60048190555061152b8560055461396c90919063ffffffff16565b6005819055506000831415156115d75761159083600360008773ffffffffffffffffffffffffffffffffffffffff1673ffffffffffffffffffffffffffffffffffffffff1681526020019081526020016000206000015461396c90919063ffffffff16565b600360008673ffffffffffffffffffffffffffffffffffffffff1673ffffffffffffffffffffffffffffffffffffffff168152602001908152602001600020600001819055505b600260009054906101000a900473ffffffffffffffffffffffffffffffffffffffff1673ffffffffffffffffffffffffffffffffffffffff166108fc839081150290604051600060405180830381858888f1935050505015801561163f573d6000803e3d6000fd5b507f6984cecad059034228f308c3ea5cc0dd100dfec878dd1fb4364fa9cb857351e98888888888888888604051808973ffffffffffffffffffffffffffffffffffffffff1673ffffffffffffffffffffffffffffffffffffffff1681526020018881526020018781526020018681526020018573ffffffffffffffffffffffffffffffffffffffff1673ffffffffffffffffffffffffffffffffffffffff1681526020018481526020018381526020018281526020019850505050505050505060405180910390a15050505050505050565b6000809054906101000a900473ffffffffffffffffffffffffffffffffffffffff1673ffffffffffffffffffffffffffffffffffffffff163373ffffffffffffffffffffffffffffffffffffffff161415156117d5576040517f08c379a00000000000000000000000000000000000000000000000000000000081526004018080602001828103825260108152602001807f4552524f525f4f4e4c595f4f574e45520000000000000000000000000000000081525060200191505060405180910390fd5b6000600260146101000a81548160ff0219169083151502179055506000600260156101000a81548160ff0219169083151502179055506000809054906101000a900473ffffffffffffffffffffffffffffffffffffffff1673ffffffffffffffffffffffffffffffffffffffff16ff5b600080339150813b90506000811415156118c7576040517f08c379a00000000000000000000000000000000000000000000000000000000081526004018080602001828103825260118152602001807f4552524f525f4f4e4c595f48554e4d414e00000000000000000000000000000081525060200191505060405180910390fd5b6000809054906101000a900473ffffffffffffffffffffffffffffffffffffffff1673ffffffffffffffffffffffffffffffffffffffff163373ffffffffffffffffffffffffffffffffffffffff1614151561198b576040517f08c379a00000000000000000000000000000000000000000000000000000000081526004018080602001828103825260108152602001807f4552524f525f4f4e4c595f4f574e45520000000000000000000000000000000081525060200191505060405180910390fd5b82600260006101000a81548173ffffffffffffffffffffffffffffffffffffffff021916908373ffffffffffffffffffffffffffffffffffffffff160217905550505050565b600080339150813b9050600081141515611a53576040517f08c379a00000000000000000000000000000000000000000000000000000000081526004018080602001828103825260118152602001807f4552524f525f4f4e4c595f48554e4d414e00000000000000000000000000000081525060200191505060405180910390fd5b6000809054906101000a900473ffffffffffffffffffffffffffffffffffffffff1673ffffffffffffffffffffffffffffffffffffffff163373ffffffffffffffffffffffffffffffffffffffff16141515611b17576040517f08c379a00000000000000000000000000000000000000000000000000000000081526004018080602001828103825260108152602001807f4552524f525f4f4e4c595f4f574e45520000000000000000000000000000000081525060200191505060405180910390fd5b82600160006101000a81548173ffffffffffffffffffffffffffffffffffffffff021916908373ffffffffffffffffffffffffffffffffffffffff160217905550505050565b6000809054906101000a900473ffffffffffffffffffffffffffffffffffffffff1673ffffffffffffffffffffffffffffffffffffffff163373ffffffffffffffffffffffffffffffffffffffff161480611c055750600160009054906101000a900473ffffffffffffffffffffffffffffffffffffffff1673ffffffffffffffffffffffffffffffffffffffff163373ffffffffffffffffffffffffffffffffffffffff16145b1515611c79576040517f08c379a00000000000000000000000000000000000000000000000000000000081526004018080602001828103825260108152602001807f4552524f525f4f4e4c595f41444d494e0000000000000000000000000000000081525060200191505060405180910390fd5b82600260146101000a81548160ff02191690831515021790555081600260156101000a81548160ff02191690831515021790555080600260166101000a81548160ff021916908315150217905550505050565b6000809054906101000a900473ffffffffffffffffffffffffffffffffffffffff1681565b60008060009054906101000a900473ffffffffffffffffffffffffffffffffffffffff1673ffffffffffffffffffffffffffffffffffffffff163373ffffffffffffffffffffffffffffffffffffffff161480611d9b5750600160009054906101000a900473ffffffffffffffffffffffffffffffffffffffff1673ffffffffffffffffffffffffffffffffffffffff163373ffffffffffffffffffffffffffffffffffffffff16145b1515611e0f576040517f08c379a00000000000000000000000000000000000000000000000000000000081526004018080602001828103825260108152602001807f4552524f525f4f4e4c595f41444d494e0000000000000000000000000000000081525060200191505060405180910390fd5b6000600360008b73ffffffffffffffffffffffffffffffffffffffff1673ffffffffffffffffffffffffffffffffffffffff16815260200190815260200160002060020154111515611ec9576040517f08c379a00000000000000000000000000000000000000000000000000000000081526004018080602001828103825260118152602001807f4552524f525f4e4f545f494e5f47414d4500000000000000000000000000000081525060200191505060405180910390fd5b6000600360008973ffffffffffffffffffffffffffffffffffffffff1673ffffffffffffffffffffffffffffffffffffffff16815260200190815260200160002060020154111515611f83576040517f08c379a00000000000000000000000000000000000000000000000000000000081526004018080602001828103825260118152602001807f4552524f525f4e4f545f494e5f47414d4500000000000000000000000000000081525060200191505060405180910390fd5b6000600360008773ffffffffffffffffffffffffffffffffffffffff1673ffffffffffffffffffffffffffffffffffffffff1681526020019081526020016000206002015411151561203d576040517f08c379a00000000000000000000000000000000000000000000000000000000081526004018080602001828103825260118152602001807f4552524f525f4e4f545f494e5f47414d4500000000000000000000000000000081525060200191505060405180910390fd5b6000600360008573ffffffffffffffffffffffffffffffffffffffff1673ffffffffffffffffffffffffffffffffffffffff168152602001908152602001600020600201541115156120f7576040517f08c379a00000000000000000000000000000000000000000000000000000000081526004018080602001828103825260118152602001807f4552524f525f4e4f545f494e5f47414d4500000000000000000000000000000081525060200191505060405180910390fd5b61214c88600360008c73ffffffffffffffffffffffffffffffffffffffff1673ffffffffffffffffffffffffffffffffffffffff1681526020019081526020016000206000015461396c90919063ffffffff16565b600360008b73ffffffffffffffffffffffffffffffffffffffff1673ffffffffffffffffffffffffffffffffffffffff168152602001908152602001600020600001819055506121e786600360008a73ffffffffffffffffffffffffffffffffffffffff1673ffffffffffffffffffffffffffffffffffffffff1681526020019081526020016000206000015461396c90919063ffffffff16565b600360008973ffffffffffffffffffffffffffffffffffffffff1673ffffffffffffffffffffffffffffffffffffffff1681526020019081526020016000206000018190555061228284600360008873ffffffffffffffffffffffffffffffffffffffff1673ffffffffffffffffffffffffffffffffffffffff1681526020019081526020016000206000015461396c90919063ffffffff16565b600360008773ffffffffffffffffffffffffffffffffffffffff1673ffffffffffffffffffffffffffffffffffffffff1681526020019081526020016000206000018190555061231d82600360008673ffffffffffffffffffffffffffffffffffffffff1673ffffffffffffffffffffffffffffffffffffffff1681526020019081526020016000206000015461396c90919063ffffffff16565b600360008573ffffffffffffffffffffffffffffffffffffffff1673ffffffffffffffffffffffffffffffffffffffff16815260200190815260200160002060000181905550600360008a73ffffffffffffffffffffffffffffffffffffffff1673ffffffffffffffffffffffffffffffffffffffff1681526020019081526020016000206001015490506123fe6001600360008c73ffffffffffffffffffffffffffffffffffffffff1673ffffffffffffffffffffffffffffffffffffffff1681526020019081526020016000206002015461398890919063ffffffff16565b600360008b73ffffffffffffffffffffffffffffffffffffffff1673ffffffffffffffffffffffffffffffffffffffff1681526020019081526020016000206002018190555061249a6001600360008a73ffffffffffffffffffffffffffffffffffffffff1673ffffffffffffffffffffffffffffffffffffffff1681526020019081526020016000206002015461398890919063ffffffff16565b600360008973ffffffffffffffffffffffffffffffffffffffff1673ffffffffffffffffffffffffffffffffffffffff168152602001908152602001600020600201819055506125366001600360008873ffffffffffffffffffffffffffffffffffffffff1673ffffffffffffffffffffffffffffffffffffffff1681526020019081526020016000206002015461398890919063ffffffff16565b600360008773ffffffffffffffffffffffffffffffffffffffff1673ffffffffffffffffffffffffffffffffffffffff168152602001908152602001600020600201819055506125d26001600360008673ffffffffffffffffffffffffffffffffffffffff1673ffffffffffffffffffffffffffffffffffffffff1681526020019081526020016000206002015461398890919063ffffffff16565b600360008573ffffffffffffffffffffffffffffffffffffffff1673ffffffffffffffffffffffffffffffffffffffff168152602001908152602001600020600201819055507feff535cf51246d4c3ccb98ea1ea71827174ec158f42a3f4fbc98033afb88e7aa898989898989898989604051808a73ffffffffffffffffffffffffffffffffffffffff1673ffffffffffffffffffffffffffffffffffffffff1681526020018981526020018873ffffffffffffffffffffffffffffffffffffffff1673ffffffffffffffffffffffffffffffffffffffff1681526020018781526020018673ffffffffffffffffffffffffffffffffffffffff1673ffffffffffffffffffffffffffffffffffffffff1681526020018581526020018473ffffffffffffffffffffffffffffffffffffffff1673ffffffffffffffffffffffffffffffffffffffff168152602001838152602001828152602001995050505050505050505060405180910390a1505050505050505050565b6000806000809054906101000a900473ffffffffffffffffffffffffffffffffffffffff1673ffffffffffffffffffffffffffffffffffffffff163373ffffffffffffffffffffffffffffffffffffffff1614806127f55750600160009054906101000a900473ffffffffffffffffffffffffffffffffffffffff1673ffffffffffffffffffffffffffffffffffffffff163373ffffffffffffffffffffffffffffffffffffffff16145b1515612869576040517f08c379a00000000000000000000000000000000000000000000000000000000081526004018080602001828103825260108152602001807f4552524f525f4f4e4c595f41444d494e0000000000000000000000000000000081525060200191505060405180910390fd5b600454905060006004819055507fd536666c77edd4bde252d6fd80911df4b656de054668fc259b1531cb6d115c9c816040518082815260200191505060405180910390a18091505090565b6000809054906101000a900473ffffffffffffffffffffffffffffffffffffffff1673ffffffffffffffffffffffffffffffffffffffff163373ffffffffffffffffffffffffffffffffffffffff16148061295c5750600160009054906101000a900473ffffffffffffffffffffffffffffffffffffffff1673ffffffffffffffffffffffffffffffffffffffff163373ffffffffffffffffffffffffffffffffffffffff16145b15156129d0576040517f08c379a00000000000000000000000000000000000000000000000000000000081526004018080602001828103825260108152602001807f4552524f525f4f4e4c595f41444d494e0000000000000000000000000000000081525060200191505060405180910390fd5b612a2581600360008573ffffffffffffffffffffffffffffffffffffffff1673ffffffffffffffffffffffffffffffffffffffff1681526020019081526020016000206000015461396c90919063ffffffff16565b600360008473ffffffffffffffffffffffffffffffffffffffff1673ffffffffffffffffffffffffffffffffffffffff168152602001908152602001600020600001819055507fb66525b8b0f07c06d4b831e62dce410805cf1fffb5e97e1c467968d209c15e138282600360008673ffffffffffffffffffffffffffffffffffffffff1673ffffffffffffffffffffffffffffffffffffffff16815260200190815260200160002060000154604051808473ffffffffffffffffffffffffffffffffffffffff1673ffffffffffffffffffffffffffffffffffffffff168152602001838152602001828152602001935050505060405180910390a15050565b600080600060011515600260169054906101000a900460ff161515141515612bb4576040517f08c379a00000000000000000000000000000000000000000000000000000000081526004018080602001828103825260148152602001807f4552524f525f5349474e5f494e5f42414e4e454400000000000000000000000081525060200191505060405180910390fd5b339150612bbf6139a1565b90507f725e4d875c94f23512823547b6a18dafd9ab5f622c8faa7e2e25a323581434f68282604051808373ffffffffffffffffffffffffffffffffffffffff1673ffffffffffffffffffffffffffffffffffffffff1681526020018281526020019250505060405180910390a1809250505090565b6000809054906101000a900473ffffffffffffffffffffffffffffffffffffffff1673ffffffffffffffffffffffffffffffffffffffff163373ffffffffffffffffffffffffffffffffffffffff161480612cdc5750600160009054906101000a900473ffffffffffffffffffffffffffffffffffffffff1673ffffffffffffffffffffffffffffffffffffffff163373ffffffffffffffffffffffffffffffffffffffff16145b1515612d50576040517f08c379a00000000000000000000000000000000000000000000000000000000081526004018080602001828103825260108152602001807f4552524f525f4f4e4c595f41444d494e0000000000000000000000000000000081525060200191505060405180910390fd5b600081111515612dc8576040517f08c379a00000000000000000000000000000000000000000000000000000000081526004018080602001828103825260138152602001807f4552524f525f494e56414c49445f52454449440000000000000000000000000081525060200191505060405180910390fd5b6000600360008573ffffffffffffffffffffffffffffffffffffffff1673ffffffffffffffffffffffffffffffffffffffff16815260200190815260200160002060020154141515612e82576040517f08c379a000000000000000000000000000000000000000000000000000000000815260040180806020018281038252600d8152602001807f4552524f525f494e5f47414d450000000000000000000000000000000000000081525060200191505060405180910390fd5b8160055410151515612efc576040517f08c379a000000000000000000000000000000000000000000000000000000000815260040180806020018281038252600b8152602001807f4552524f525f56414c554500000000000000000000000000000000000000000081525060200191505060405180910390fd5b80600360008573ffffffffffffffffffffffffffffffffffffffff1673ffffffffffffffffffffffffffffffffffffffff16815260200190815260200160002060010181905550612f996001600360008673ffffffffffffffffffffffffffffffffffffffff1673ffffffffffffffffffffffffffffffffffffffff1681526020019081526020016000206002015461396c90919063ffffffff16565b600360008573ffffffffffffffffffffffffffffffffffffffff1673ffffffffffffffffffffffffffffffffffffffff16815260200190815260200160002060020181905550600082111561309f57612ffd8260055461398890919063ffffffff16565b60058190555061305882600360008673ffffffffffffffffffffffffffffffffffffffff1673ffffffffffffffffffffffffffffffffffffffff1681526020019081526020016000206000015461396c90919063ffffffff16565b600360008573ffffffffffffffffffffffffffffffffffffffff1673ffffffffffffffffffffffffffffffffffffffff168152602001908152602001600020600001819055505b7f510a9048155b83ec1bdfc6d5125af54bc50c6d662840948397fb305fc28c2e8e838383604051808473ffffffffffffffffffffffffffffffffffffffff1673ffffffffffffffffffffffffffffffffffffffff168152602001838152602001828152602001935050505060405180910390a1505050565b6000809054906101000a900473ffffffffffffffffffffffffffffffffffffffff1673ffffffffffffffffffffffffffffffffffffffff163373ffffffffffffffffffffffffffffffffffffffff1614806131bf5750600160009054906101000a900473ffffffffffffffffffffffffffffffffffffffff1673ffffffffffffffffffffffffffffffffffffffff163373ffffffffffffffffffffffffffffffffffffffff16145b1515613233576040517f08c379a00000000000000000000000000000000000000000000000000000000081526004018080602001828103825260108152602001807f4552524f525f4f4e4c595f41444d494e0000000000000000000000000000000081525060200191505060405180910390fd5b6000811115156132ab576040517f08c379a00000000000000000000000000000000000000000000000000000000081526004018080602001828103825260138152602001807f4552524f525f494e56414c49445f52454449440000000000000000000000000081525060200191505060405180910390fd5b8160055410151515613325576040517f08c379a000000000000000000000000000000000000000000000000000000000815260040180806020018281038252600b8152602001807f4552524f525f56414c554500000000000000000000000000000000000000000081525060200191505060405180910390fd5b80600360008573ffffffffffffffffffffffffffffffffffffffff1673ffffffffffffffffffffffffffffffffffffffff168152602001908152602001600020600101819055506133c26001600360008673ffffffffffffffffffffffffffffffffffffffff1673ffffffffffffffffffffffffffffffffffffffff1681526020019081526020016000206002015461396c90919063ffffffff16565b600360008573ffffffffffffffffffffffffffffffffffffffff1673ffffffffffffffffffffffffffffffffffffffff1681526020019081526020016000206002018190555060008211156134c8576134268260055461398890919063ffffffff16565b60058190555061348182600360008673ffffffffffffffffffffffffffffffffffffffff1673ffffffffffffffffffffffffffffffffffffffff1681526020019081526020016000206000015461396c90919063ffffffff16565b600360008573ffffffffffffffffffffffffffffffffffffffff1673ffffffffffffffffffffffffffffffffffffffff168152602001908152602001600020600001819055505b7f678fff2aa8bb66d94bc6348ab0927086f5dcb7f4560cab8b752447b2cc75652f838383604051808473ffffffffffffffffffffffffffffffffffffffff1673ffffffffffffffffffffffffffffffffffffffff168152602001838152602001828152602001935050505060405180910390a1505050565b600080600080339150813b90506000811415156135c5576040517f08c379a00000000000000000000000000000000000000000000000000000000081526004018080602001828103825260118152602001807f4552524f525f4f4e4c595f48554e4d414e00000000000000000000000000000081525060200191505060405180910390fd5b60011515600260149054906101000a900460ff161515141515613650576040517f08c379a00000000000000000000000000000000000000000000000000000000081526004018080602001828103825260148152602001807f4552524f525f4445504f5349545f42414e4e454400000000000000000000000081525060200191505060405180910390fd5b3393503492506000831115156136ce576040517f08c379a000000000000000000000000000000000000000000000000000000000815260040180806020018281038252601b8152602001807f4552524f525f494e56414c49445f4445504f5349545f56414c5545000000000081525060200191505060405180910390fd5b61372383600360008773ffffffffffffffffffffffffffffffffffffffff1673ffffffffffffffffffffffffffffffffffffffff1681526020019081526020016000206000015461396c90919063ffffffff16565b600360008673ffffffffffffffffffffffffffffffffffffffff1673ffffffffffffffffffffffffffffffffffffffff168152602001908152602001600020600001819055507f2bf9518c65eff7d1f3ee4106bf0dc41267ccde0924dbfa4ab476ed5c0f45da988484604051808373ffffffffffffffffffffffffffffffffffffffff1673ffffffffffffffffffffffffffffffffffffffff1681526020018281526020019250505060405180910390a150505050565b6000806000806000803073ffffffffffffffffffffffffffffffffffffffff1631600454600554600260149054906101000a900460ff16600260159054906101000a900460ff16600260169054906101000a900460ff16955095509550955095509550909192939495565b600260009054906101000a900473ffffffffffffffffffffffffffffffffffffffff1681565b6000806000600360008573ffffffffffffffffffffffffffffffffffffffff1673ffffffffffffffffffffffffffffffffffffffff16815260200190815260200160002060000154600360008673ffffffffffffffffffffffffffffffffffffffff1673ffffffffffffffffffffffffffffffffffffffff16815260200190815260200160002060010154600360008773ffffffffffffffffffffffffffffffffffffffff1673ffffffffffffffffffffffffffffffffffffffff168152602001908152602001600020600201549250925092509193909250565b600160009054906101000a900473ffffffffffffffffffffffffffffffffffffffff1681565b6000818301905082811015151561397f57fe5b80905092915050565b600082821115151561399657fe5b818303905092915050565b600080613bac3073ffffffffffffffffffffffffffffffffffffffff1631613b9e43613b9043613b824233604051602001808273ffffffffffffffffffffffffffffffffffffffff1673ffffffffffffffffffffffffffffffffffffffff166c010000000000000000000000000281526014019150506040516020818303038152906040526040518082805190602001908083835b602083101515613a5b5780518252602082019150602081019050602083039250613a36565b6001836020036101000a038019825116818451168082178552505050505050905001915050604051809103902060019004811515613a9557fe5b04613b744241604051602001808273ffffffffffffffffffffffffffffffffffffffff1673ffffffffffffffffffffffffffffffffffffffff166c010000000000000000000000000281526014019150506040516020818303038152906040526040518082805190602001908083835b602083101515613b2a5780518252602082019150602081019050602083039250613b05565b6001836020036101000a038019825116818451168082178552505050505050905001915050604051809103902060019004811515613b6457fe5b044261396c90919063ffffffff16565b61396c90919063ffffffff16565b61396c90919063ffffffff16565b61396c90919063ffffffff16565b61396c90919063ffffffff16565b604051602001808281526020019150506040516020818303038152906040526040518082805190602001908083835b602083101515613c005780518252602082019150602081019050602083039250613bdb565b6001836020036101000a03801982511681845116808217855250505050505090500191505060405180910390206001900490506001600a82811515613c4157fe5b0601915050905600a165627a7a72305820bf0297890a1059f4d48bda2660f33e7cfe411b26c9d69f910395a6a5a00119570029",
  "source": "pragma solidity ^0.4.23;\n\n/**\n * @title SafeMath v0.1.9\n * @dev Math operations with safety checks that throw on error\n * change notes:  original SafeMath library from OpenZeppelin modified by Inventor\n * - added sqrt\n * - added sq\n * - added pwr\n * - changed asserts to requires with error log outputs\n * - removed div, its useless\n */\nlibrary SafeMath {\n\n    /**\n    * @dev Multiplies two numbers, throws on overflow.\n    */\n    function mul(uint256 a, uint256 b) internal pure returns (uint256 c) {\n        // Gas optimization: this is cheaper than asserting 'a' not being zero, but the\n        // benefit is lost if 'b' is also tested.\n        // See: https://github.com/OpenZeppelin/openzeppelin-solidity/pull/522\n        if (a == 0) {\n            return 0;\n        }\n\n        c = a * b;\n        assert(c / a == b);\n        return c;\n    }\n\n    /**\n    * @dev Integer division of two numbers, truncating the quotient.\n    */\n    function div(uint256 a, uint256 b) internal pure returns (uint256) {\n        // assert(b > 0); // Solidity automatically throws when dividing by 0\n        // uint256 c = a / b;\n        // assert(a == b * c + a % b); // There is no case in which this doesn't hold\n        return a / b;\n    }\n\n    /**\n    * @dev Subtracts two numbers, throws on overflow (i.e. if subtrahend is greater than minuend).\n    */\n    function sub(uint256 a, uint256 b) internal pure returns (uint256) {\n        assert(b <= a);\n        return a - b;\n    }\n\n    /**\n    * @dev Adds two numbers, throws on overflow.\n    */\n    function add(uint256 a, uint256 b) internal pure returns (uint256 c) {\n        c = a + b;\n        assert(c >= a);\n        return c;\n    }\n}\n\ncontract basicEvents {\n    event onDeposit(\n        address user,\n        uint256 value\n    );\n\n\n    event onWithdraw(\n        address user,\n        uint256 value\n    );\n\n\n    event onUpdateUserPlayingStatus(\n        address userAddress,\n        uint256 lucky,\n        uint256 redID\n    );\n\n    event onUpdateUserPlayingStatusMulti(\n        address userAddress,\n        uint256 lucky,\n        uint256 redID\n    );\n\n    event onUploadRedResult(\n        address player2,\n        uint256 value2,\n        address player3,\n        uint256 value3,\n        address player4,\n        uint256 value4,\n        address player5,\n        uint256 value5,\n        uint256 redID\n    );\n\n    event onUploadPoolResult(\n        address luckyBoy,\n        uint256 subValue,\n        uint256 dividends,\n        uint256 lucky,\n        address aff,\n        uint256 affEarn,\n        uint256 comEarn,\n        uint256 redID\n    );\n\n    event onUploadShareBonus(\n        address userAddress,\n        uint256 value,\n        uint256 balance\n    );\n\n    event onGetAndClearDividendsPool(\n        uint256 dividendsPool\n    );\n\n    event onUpdateFiveUserBalance(\n        address user1,\n        uint256 value1,\n        address user2,\n        uint256 value2,\n        address user3,\n        uint256 value3,\n        address user4,\n        uint256 value4,\n        address user5,\n        uint256 value5\n    );\n\n    event onSignIn(\n        address user,\n        uint256 amount\n    );\n}\n\ncontract Basic is basicEvents {\n    using SafeMath for uint256;\n    address public owner;\n    address public admin;\n    address public com;\n    bool DEPOSIT;\n    bool WITHDRAW;\n    bool SIGNIN;\n\n    constructor()\n    public\n    {\n        owner=msg.sender;\n        admin=msg.sender;\n        com=msg.sender;\n        DEPOSIT=false;\n        WITHDRAW=false;\n        SIGNIN=false;\n    }\n\n    struct User {\n        uint256 balance;\n        uint redID;\n        uint reds;\n    }\n\n    mapping(address => User) public userInfo;\n    uint256 dividendsPool;\n    uint256 luckyPool;\n\n    //==============================================================================\n    //     _ _  _  _|. |`. _  _ _  .\n    //    | | |(_)(_||~|~|(/_| _\\  .  (these are safety checks)\n    //==============================================================================\n\n    /**\n     * @dev prevents contracts from interacting with Basic\n     */\n    modifier isHuman() {\n        address _addr = msg.sender;\n        uint256 _codeLength;\n\n        assembly {_codeLength := extcodesize(_addr)}\n        require(_codeLength == 0, \"ERROR_ONLY_HUNMAN\");\n        _;\n    }\n\n    modifier onlyOwner {\n        require(msg.sender == owner,\"ERROR_ONLY_OWNER\");\n        _;\n    }\n\n    modifier onlyAdmin {\n        require(msg.sender == owner || msg.sender == admin,\"ERROR_ONLY_ADMIN\");\n        _;\n    }\n    //==============================================================================\n    //     _    |_ |. _   |`    _  __|_. _  _  _  .\n    //    |_)|_||_)||(_  ~|~|_|| |(_ | |(_)| |_\\  .  (use these to interact with contract)\n    //====|=========================================================================\n\n    function setAdmin(address adminAddress)\n    isHuman()\n    onlyOwner()\n    public\n    {\n        admin=adminAddress;\n    }\n\n    function setCom(address comAddress)\n    isHuman()\n    onlyOwner()\n    public\n    {\n        com=comAddress;\n    }\n\n    function deposit()\n    isHuman()\n    public\n    payable\n    {\n        require(DEPOSIT==true,'ERROR_DEPOSIT_BANNED');\n        address user = msg.sender;\n        uint256 value = msg.value;\n\n        require(value>0,'ERROR_INVALID_DEPOSIT_VALUE');\n\n        userInfo[user].balance=userInfo[user].balance.add(value);\n\n        emit basicEvents.onDeposit(user,value);\n    }\n\n    function withdraw()\n    isHuman()\n    public\n    {\n        require(WITHDRAW==true,'ERROR_WITHDRAW_BANNED');\n\n        address user = msg.sender;\n        require(userInfo[user].balance>0,'ERROR_INVALID_WITHDRAW_VALUE');\n        require(userInfo[user].reds==0,'ERROR_IN_GAME');\n\n        user.transfer(userInfo[user].balance);\n        emit basicEvents.onWithdraw(user,userInfo[user].balance);\n        userInfo[user].balance=0;\n    }\n\n    function updateUserPlayingStatus(address userAddress,uint256 lucky,uint256 redID)\n    onlyAdmin()\n    public\n    {\n        require(redID>0,'ERROR_INVALID_REDID');\n        require(userInfo[userAddress].reds==0,'ERROR_IN_GAME');\n        require(luckyPool>=lucky,'ERROR_VALUE');\n        userInfo[userAddress].redID=redID;\n        userInfo[userAddress].reds=userInfo[userAddress].reds.add(1);\n\n        if(lucky>0){\n            luckyPool=luckyPool.sub(lucky);\n            userInfo[userAddress].balance = userInfo[userAddress].balance.add(lucky);\n        }\n\n        emit basicEvents.onUpdateUserPlayingStatus(userAddress,lucky,redID);\n    }\n\n    function uploadRedResult(address player2,uint256 value2,address player3,uint256 value3,address player4,uint256 value4,address player5,uint256 value5)\n    onlyAdmin()\n    public\n    {\n        require(userInfo[player2].reds>0,'ERROR_NOT_IN_GAME');\n        require(userInfo[player3].reds>0,'ERROR_NOT_IN_GAME');\n        require(userInfo[player4].reds>0,'ERROR_NOT_IN_GAME');\n        require(userInfo[player5].reds>0,'ERROR_NOT_IN_GAME');\n\n        userInfo[player2].balance=userInfo[player2].balance.add(value2);\n        userInfo[player3].balance=userInfo[player3].balance.add(value3);\n        userInfo[player4].balance=userInfo[player4].balance.add(value4);\n        userInfo[player5].balance=userInfo[player5].balance.add(value5);\n\n        uint256 redID=userInfo[player2].redID;\n\n        userInfo[player2].reds=userInfo[player2].reds.sub(1);\n        userInfo[player3].reds=userInfo[player3].reds.sub(1);\n        userInfo[player4].reds=userInfo[player4].reds.sub(1);\n        userInfo[player5].reds=userInfo[player5].reds.sub(1);\n\n        emit basicEvents.onUploadRedResult( player2,value2, player3,value3, player4,value4, player5,value5,redID);\n    }\n\n    function uploadPoolResult(address luckyBoy,uint256 subValue,uint256 dividends,uint256 lucky,address aff,uint256 affEarn,uint256 comEarn)\n    onlyAdmin()\n    public\n    {\n        require(userInfo[luckyBoy].reds>0,'ERROR_NOT_IN_GAME');\n        userInfo[luckyBoy].balance=userInfo[luckyBoy].balance.sub(subValue);\n\n        uint256 redID=userInfo[luckyBoy].redID;\n\n        userInfo[luckyBoy].reds=userInfo[luckyBoy].reds.sub(1);\n\n        dividendsPool=dividendsPool.add(dividends);\n        luckyPool=luckyPool.add(lucky);\n\n        if(affEarn !=0){\n            userInfo[aff].balance=userInfo[aff].balance.add(affEarn);\n        }\n\n        com.transfer(comEarn);\n\n        emit basicEvents.onUploadPoolResult( luckyBoy,subValue,dividends, lucky, aff, affEarn, comEarn,redID);\n    }\n\n    function getAndClearDividendsPool()\n    onlyAdmin()\n    public\n    returns(uint256)\n    {\n        uint256 data=dividendsPool;\n        dividendsPool=0;\n        emit basicEvents.onGetAndClearDividendsPool(data);\n        return data;\n    }\n\n    function uploadShareBonus(address userAddress,uint256 value)\n    onlyAdmin()\n    public{\n        userInfo[userAddress].balance=userInfo[userAddress].balance.add(value);\n        emit basicEvents.onUploadShareBonus(userAddress,value,userInfo[userAddress].balance);\n    }\n\n    function updateFiveUserBalance(address user1,uint256 value1,address user2,uint256 value2,address user3,uint256 value3,address user4,uint256 value4,address user5,uint256 value5)\n    onlyAdmin()\n    public{\n        userInfo[user1].balance=userInfo[user1].balance.add(value1);\n        userInfo[user2].balance=userInfo[user2].balance.add(value2);\n        userInfo[user3].balance=userInfo[user3].balance.add(value3);\n        userInfo[user4].balance=userInfo[user4].balance.add(value4);\n        userInfo[user5].balance=userInfo[user5].balance.add(value5);\n        emit basicEvents.onUpdateFiveUserBalance(user1,value1,user2,value2,user3,value3,user4,value4,user5,value5);\n    }\n\n    function getUserStatus(address userAddress)\n    public\n    view\n    returns(uint256 balance,uint256 redID,uint reds){\n        return(userInfo[userAddress].balance,userInfo[userAddress].redID,userInfo[userAddress].reds);\n    }\n\n    function getGlobalInfo()\n    public\n    view\n    returns(uint256 ,uint256 ,uint256 ,bool ,bool,bool){\n        return(address(this).balance,dividendsPool,luckyPool,DEPOSIT,WITHDRAW,SIGNIN);\n    }\n\n    function switchCharge(bool deposit,bool withdraw,bool signIn)\n    onlyAdmin()\n    public\n    {\n        DEPOSIT=deposit;\n        WITHDRAW=withdraw;\n        SIGNIN=signIn;\n    }\n\n    function close()\n    onlyOwner()\n    public\n    {\n        DEPOSIT=false;\n        WITHDRAW=false;\n        selfdestruct(owner);\n    }\n\n    function updateUserPlayingStatusMulti(address userAddress,uint256 lucky,uint256 redID)\n    onlyAdmin()\n    public\n    {\n        require(redID>0,'ERROR_INVALID_REDID');\n        require(luckyPool>=lucky,'ERROR_VALUE');\n        userInfo[userAddress].redID=redID;\n        userInfo[userAddress].reds=userInfo[userAddress].reds.add(1);\n\n        if(lucky>0){\n            luckyPool=luckyPool.sub(lucky);\n            userInfo[userAddress].balance = userInfo[userAddress].balance.add(lucky);\n        }\n\n        emit basicEvents.onUpdateUserPlayingStatusMulti(userAddress,lucky,redID);\n    }\n\n    function signIn()\n    public\n    returns\n    (uint256)\n    {\n        require(SIGNIN==true,'ERROR_SIGN_IN_BANNED');\n        address user=msg.sender;\n        uint256 amount=airdrop();\n        emit basicEvents.onSignIn(user,amount);\n\n        return amount;\n    }\n\n    /**\n    * @dev generates a random number between 0-99 and checks to see if thats\n    * resulted in an airdrop win\n    * @return do we have a winner?\n    */\n    function airdrop()\n    private\n    view\n    returns(uint)\n    {\n        uint256 seed = uint256(keccak256(abi.encodePacked(\n\n                (block.timestamp).add\n                ((uint256(keccak256(abi.encodePacked(block.coinbase)))) / (now)).add\n                ((uint256(keccak256(abi.encodePacked(msg.sender)))) / (now)).add\n                (block.number).add\n                (block.number).add\n                (address(this).balance)\n\n            )));\n\n        return ((seed % 10)+1);\n\n    }\n\n}\n\n\n\n",
  "sourcePath": "/Users/apple/trx/projects/red/contracts/basic.sol",
  "compiler": {
    "name": "solc",
    "version": "0.4.24-develop.2018.8.28+commit.3ba0cdec.mod.Emscripten.clang"
  },
  "schemaVersion": "2.0.1",
  "updatedAt": "2019-01-02T07:55:56.564Z"
}